{
  "_format": "hh3-artifact-1",
  "contractName": "CounterFactory",
  "sourceName": "contracts/CounterFactory.sol",
  "abi": [
    {
      "anonymous": false,
      "inputs": [
        {
          "indexed": true,
          "internalType": "address",
          "name": "counterAddress",
          "type": "address"
        },
        {
          "indexed": true,
          "internalType": "address",
          "name": "creator",
          "type": "address"
        }
      ],
      "name": "CounterCreated",
      "type": "event"
    },
    {
      "inputs": [
        {
          "internalType": "uint256",
          "name": "",
          "type": "uint256"
        }
      ],
      "name": "counters",
      "outputs": [
        {
          "internalType": "contract Counter",
          "name": "",
          "type": "address"
        }
      ],
      "stateMutability": "view",
      "type": "function"
    },
    {
      "inputs": [],
      "name": "createCounter",
      "outputs": [
        {
          "internalType": "contract Counter",
          "name": "",
          "type": "address"
        }
      ],
      "stateMutability": "nonpayable",
      "type": "function"
    },
    {
      "inputs": [
        {
          "internalType": "uint256",
          "name": "count",
          "type": "uint256"
        }
      ],
      "name": "createMultipleCounters",
      "outputs": [
        {
          "internalType": "contract Counter[]",
          "name": "",
          "type": "address[]"
        }
      ],
      "stateMutability": "nonpayable",
      "type": "function"
    },
    {
      "inputs": [
        {
          "internalType": "uint256",
          "name": "index",
          "type": "uint256"
        }
      ],
      "name": "getCounter",
      "outputs": [
        {
          "internalType": "contract Counter",
          "name": "",
          "type": "address"
        }
      ],
      "stateMutability": "view",
      "type": "function"
    },
    {
      "inputs": [],
      "name": "getCountersCount",
      "outputs": [
        {
          "internalType": "uint256",
          "name": "",
          "type": "uint256"
        }
      ],
      "stateMutability": "view",
      "type": "function"
    }
  ],
  "bytecode": "0x6080604052348015600e575f5ffd5b506106058061001c5f395ff3fe608060405234801561000f575f5ffd5b5060043610610055575f3560e01c8063214aed451461005957806378b529481461008957806387cf890b14610091578063b5bf3973146100b1578063fba7ffa3146100c1575b5f5ffd5b61006c61006736600461032a565b6100d4565b6040516001600160a01b0390911681526020015b60405180910390f35b61006c610156565b6100a461009f36600461032a565b6101fa565b6040516100809190610341565b5f54604051908152602001610080565b61006c6100cf36600461032a565b6102f6565b5f8054821061012a5760405162461bcd60e51b815260206004820152601d60248201527f436f756e746572466163746f72793a20496e76616c696420696e64657800000060448201526064015b60405180910390fd5b5f828154811061013c5761013c61038c565b5f918252602090912001546001600160a01b031692915050565b5f5f6040516101649061031d565b604051809103905ff08015801561017d573d5f5f3e3d5ffd5b505f80546001810182558180527f290decd9548b62a8d60345a988386fc84ba6bc95484008f6362f93160ef3e5630180546001600160a01b0319166001600160a01b038416908117909155604051929350339290917f5c38acfb3685547711685ae1e758ca685f33fa7cd3e3c738411afd24b933918991a3919050565b60605f82116102605760405162461bcd60e51b815260206004820152602c60248201527f436f756e746572466163746f72793a20436f756e74206d75737420626520677260448201526b06561746572207468616e20360a41b6064820152608401610121565b5f8267ffffffffffffffff81111561027a5761027a6103a0565b6040519080825280602002602001820160405280156102a3578160200160208202803683370190505b5090505f5b838110156102ef575f6102b9610156565b9050808383815181106102ce576102ce61038c565b6001600160a01b0390921660209283029190910190910152506001016102a8565b5092915050565b5f8181548110610304575f80fd5b5f918252602090912001546001600160a01b0316905081565b61021b806103b583390190565b5f6020828403121561033a575f5ffd5b5035919050565b602080825282518282018190525f918401906040840190835b818110156103815783516001600160a01b031683526020938401939092019160010161035a565b509095945050505050565b634e487b7160e01b5f52603260045260245ffd5b634e487b7160e01b5f52604160045260245ffdfe6080604052348015600e575f5ffd5b506101ff8061001c5f395ff3fe608060405234801561000f575f5ffd5b506004361061003f575f3560e01c80630c55699c14610043578063371303c01461005d57806370119d0614610067575b5f5ffd5b61004b5f5481565b60405190815260200160405180910390f35b61006561007a565b005b61006561007536600461016d565b6100c3565b5f8054908061008883610198565b9091555050604051600181527f51af157c2eee40f68107a47a49c32fbbeb0a3c9e5cd37aa56e88e6be92368a819060200160405180910390a1565b5f81116101225760405162461bcd60e51b815260206004820152602360248201527f696e6342793a20696e6372656d656e742073686f756c6420626520706f73697460448201526269766560e81b606482015260840160405180910390fd5b805f5f82825461013291906101b0565b90915550506040518181527f51af157c2eee40f68107a47a49c32fbbeb0a3c9e5cd37aa56e88e6be92368a819060200160405180910390a150565b5f6020828403121561017d575f5ffd5b5035919050565b634e487b7160e01b5f52601160045260245ffd5b5f600182016101a9576101a9610184565b5060010190565b808201808211156101c3576101c3610184565b9291505056fea264697066735822122092c04af7cb39a2e3f4ade21a1b198faf89f565ac533adb1d8d7d00bda5ba04d764736f6c634300081c0033a2646970667358221220c1f77479420492e1c00c830c54a649525a42943bd852918606aa217bee708fbf64736f6c634300081c0033",
  "linkReferences": {},
  "deployedLinkReferences": {},
  "immutableReferences": {},
  "inputSourceName": "project/contracts/CounterFactory.sol",
  "buildInfoId": "solc-0_8_28-9972adddd3377c5d22f7a157f978b9c3eae208e2"
}