{
  "address": "0xe7937FeB141c01F438c0Cc7CD24009Aa3773e0C6",
  "abi": [
    {
      "inputs": [
        {
          "internalType": "address",
          "name": "target",
          "type": "address"
        }
      ],
      "name": "AddressEmptyCode",
      "type": "error"
    },
    {
      "inputs": [
        {
          "internalType": "address",
          "name": "implementation",
          "type": "address"
        }
      ],
      "name": "ERC1967InvalidImplementation",
      "type": "error"
    },
    {
      "inputs": [],
      "name": "ERC1967NonPayable",
      "type": "error"
    },
    {
      "inputs": [],
      "name": "FailedCall",
      "type": "error"
    },
    {
      "inputs": [],
      "name": "InvalidInitialization",
      "type": "error"
    },
    {
      "inputs": [],
      "name": "NotInitializing",
      "type": "error"
    },
    {
      "inputs": [
        {
          "internalType": "address",
          "name": "owner",
          "type": "address"
        }
      ],
      "name": "OwnableInvalidOwner",
      "type": "error"
    },
    {
      "inputs": [
        {
          "internalType": "address",
          "name": "account",
          "type": "address"
        }
      ],
      "name": "OwnableUnauthorizedAccount",
      "type": "error"
    },
    {
      "inputs": [],
      "name": "UUPSUnauthorizedCallContext",
      "type": "error"
    },
    {
      "inputs": [
        {
          "internalType": "bytes32",
          "name": "slot",
          "type": "bytes32"
        }
      ],
      "name": "UUPSUnsupportedProxiableUUID",
      "type": "error"
    },
    {
      "anonymous": false,
      "inputs": [
        {
          "indexed": true,
          "internalType": "uint256",
          "name": "auctionId",
          "type": "uint256"
        }
      ],
      "name": "AuctionCancelled",
      "type": "event"
    },
    {
      "anonymous": false,
      "inputs": [
        {
          "indexed": true,
          "internalType": "uint256",
          "name": "auctionId",
          "type": "uint256"
        },
        {
          "indexed": true,
          "internalType": "address",
          "name": "seller",
          "type": "address"
        },
        {
          "indexed": true,
          "internalType": "address",
          "name": "nftContract",
          "type": "address"
        },
        {
          "indexed": false,
          "internalType": "uint256",
          "name": "nftId",
          "type": "uint256"
        }
      ],
      "name": "AuctionCreated",
      "type": "event"
    },
    {
      "anonymous": false,
      "inputs": [
        {
          "indexed": true,
          "internalType": "uint256",
          "name": "auctionId",
          "type": "uint256"
        },
        {
          "indexed": true,
          "internalType": "address",
          "name": "winner",
          "type": "address"
        },
        {
          "indexed": false,
          "internalType": "uint256",
          "name": "amount",
          "type": "uint256"
        }
      ],
      "name": "AuctionEnded",
      "type": "event"
    },
    {
      "anonymous": false,
      "inputs": [
        {
          "indexed": true,
          "internalType": "address",
          "name": "newImplementation",
          "type": "address"
        }
      ],
      "name": "AuctionUpgraded",
      "type": "event"
    },
    {
      "anonymous": false,
      "inputs": [
        {
          "indexed": true,
          "internalType": "uint256",
          "name": "auctionId",
          "type": "uint256"
        },
        {
          "indexed": true,
          "internalType": "address",
          "name": "bidder",
          "type": "address"
        },
        {
          "indexed": false,
          "internalType": "uint256",
          "name": "amount",
          "type": "uint256"
        }
      ],
      "name": "BidPlaced",
      "type": "event"
    },
    {
      "anonymous": false,
      "inputs": [
        {
          "indexed": false,
          "internalType": "uint64",
          "name": "version",
          "type": "uint64"
        }
      ],
      "name": "Initialized",
      "type": "event"
    },
    {
      "anonymous": false,
      "inputs": [
        {
          "indexed": true,
          "internalType": "address",
          "name": "previousOwner",
          "type": "address"
        },
        {
          "indexed": true,
          "internalType": "address",
          "name": "newOwner",
          "type": "address"
        }
      ],
      "name": "OwnershipTransferred",
      "type": "event"
    },
    {
      "anonymous": false,
      "inputs": [
        {
          "indexed": true,
          "internalType": "address",
          "name": "implementation",
          "type": "address"
        }
      ],
      "name": "Upgraded",
      "type": "event"
    },
    {
      "inputs": [],
      "name": "UPGRADE_INTERFACE_VERSION",
      "outputs": [
        {
          "internalType": "string",
          "name": "",
          "type": "string"
        }
      ],
      "stateMutability": "view",
      "type": "function"
    },
    {
      "inputs": [
        {
          "internalType": "uint256",
          "name": "",
          "type": "uint256"
        }
      ],
      "name": "auctions",
      "outputs": [
        {
          "internalType": "address",
          "name": "seller",
          "type": "address"
        },
        {
          "internalType": "address",
          "name": "nftContract",
          "type": "address"
        },
        {
          "internalType": "uint256",
          "name": "nftId",
          "type": "uint256"
        },
        {
          "internalType": "uint256",
          "name": "startTime",
          "type": "uint256"
        },
        {
          "internalType": "uint256",
          "name": "endTime",
          "type": "uint256"
        },
        {
          "internalType": "uint256",
          "name": "startingPrice",
          "type": "uint256"
        },
        {
          "internalType": "uint256",
          "name": "currentPrice",
          "type": "uint256"
        },
        {
          "internalType": "address",
          "name": "currentWinner",
          "type": "address"
        },
        {
          "internalType": "address",
          "name": "paymentToken",
          "type": "address"
        },
        {
          "internalType": "enum Auction.AuctionStatus",
          "name": "status",
          "type": "uint8"
        }
      ],
      "stateMutability": "view",
      "type": "function"
    },
    {
      "inputs": [],
      "name": "baseFeePercentage",
      "outputs": [
        {
          "internalType": "uint256",
          "name": "",
          "type": "uint256"
        }
      ],
      "stateMutability": "view",
      "type": "function"
    },
    {
      "inputs": [
        {
          "internalType": "uint256",
          "name": "amount",
          "type": "uint256"
        }
      ],
      "name": "calculateFee",
      "outputs": [
        {
          "internalType": "uint256",
          "name": "",
          "type": "uint256"
        }
      ],
      "stateMutability": "view",
      "type": "function"
    },
    {
      "inputs": [
        {
          "internalType": "uint256",
          "name": "auctionId",
          "type": "uint256"
        }
      ],
      "name": "cancelAuction",
      "outputs": [],
      "stateMutability": "nonpayable",
      "type": "function"
    },
    {
      "inputs": [
        {
          "internalType": "address",
          "name": "nftContract",
          "type": "address"
        },
        {
          "internalType": "uint256",
          "name": "nftId",
          "type": "uint256"
        },
        {
          "internalType": "uint256",
          "name": "startingPrice",
          "type": "uint256"
        },
        {
          "internalType": "uint256",
          "name": "duration",
          "type": "uint256"
        },
        {
          "internalType": "address",
          "name": "paymentToken",
          "type": "address"
        }
      ],
      "name": "createAuction",
      "outputs": [],
      "stateMutability": "nonpayable",
      "type": "function"
    },
    {
      "inputs": [
        {
          "internalType": "uint256",
          "name": "auctionId",
          "type": "uint256"
        }
      ],
      "name": "endAuction",
      "outputs": [],
      "stateMutability": "nonpayable",
      "type": "function"
    },
    {
      "inputs": [],
      "name": "ethUsdPriceFeed",
      "outputs": [
        {
          "internalType": "contract AggregatorV3Interface",
          "name": "",
          "type": "address"
        }
      ],
      "stateMutability": "view",
      "type": "function"
    },
    {
      "inputs": [],
      "name": "factory",
      "outputs": [
        {
          "internalType": "address",
          "name": "",
          "type": "address"
        }
      ],
      "stateMutability": "view",
      "type": "function"
    },
    {
      "inputs": [
        {
          "internalType": "address",
          "name": "factory",
          "type": "address"
        }
      ],
      "name": "factoryInitializeV2",
      "outputs": [],
      "stateMutability": "nonpayable",
      "type": "function"
    },
    {
      "inputs": [
        {
          "internalType": "address",
          "name": "newImplementation",
          "type": "address"
        }
      ],
      "name": "factoryUpgradeTo",
      "outputs": [],
      "stateMutability": "nonpayable",
      "type": "function"
    },
    {
      "inputs": [],
      "name": "feeThreshold",
      "outputs": [
        {
          "internalType": "uint256",
          "name": "",
          "type": "uint256"
        }
      ],
      "stateMutability": "view",
      "type": "function"
    },
    {
      "inputs": [
        {
          "internalType": "address",
          "name": "token",
          "type": "address"
        },
        {
          "internalType": "uint256",
          "name": "amount",
          "type": "uint256"
        }
      ],
      "name": "getPriceInUSD",
      "outputs": [
        {
          "internalType": "uint256",
          "name": "",
          "type": "uint256"
        }
      ],
      "stateMutability": "view",
      "type": "function"
    },
    {
      "inputs": [
        {
          "internalType": "address",
          "name": "_ethUsdPriceFeed",
          "type": "address"
        },
        {
          "internalType": "uint256",
          "name": "_baseFeePercentage",
          "type": "uint256"
        },
        {
          "internalType": "uint256",
          "name": "_maxFeePercentage",
          "type": "uint256"
        },
        {
          "internalType": "uint256",
          "name": "_feeThreshold",
          "type": "uint256"
        },
        {
          "internalType": "address",
          "name": "initialOwner",
          "type": "address"
        },
        {
          "internalType": "address",
          "name": "_factory",
          "type": "address"
        }
      ],
      "name": "initialize",
      "outputs": [
        {
          "internalType": "uint256",
          "name": "",
          "type": "uint256"
        }
      ],
      "stateMutability": "nonpayable",
      "type": "function"
    },
    {
      "inputs": [],
      "name": "initializeV2",
      "outputs": [],
      "stateMutability": "nonpayable",
      "type": "function"
    },
    {
      "inputs": [],
      "name": "maxFeePercentage",
      "outputs": [
        {
          "internalType": "uint256",
          "name": "",
          "type": "uint256"
        }
      ],
      "stateMutability": "view",
      "type": "function"
    },
    {
      "inputs": [],
      "name": "minBidIncrementPercentage",
      "outputs": [
        {
          "internalType": "uint256",
          "name": "",
          "type": "uint256"
        }
      ],
      "stateMutability": "view",
      "type": "function"
    },
    {
      "inputs": [],
      "name": "nextAuctionId",
      "outputs": [
        {
          "internalType": "uint256",
          "name": "",
          "type": "uint256"
        }
      ],
      "stateMutability": "view",
      "type": "function"
    },
    {
      "inputs": [],
      "name": "owner",
      "outputs": [
        {
          "internalType": "address",
          "name": "",
          "type": "address"
        }
      ],
      "stateMutability": "view",
      "type": "function"
    },
    {
      "inputs": [
        {
          "internalType": "uint256",
          "name": "auctionId",
          "type": "uint256"
        }
      ],
      "name": "placeBid",
      "outputs": [],
      "stateMutability": "payable",
      "type": "function"
    },
    {
      "inputs": [],
      "name": "proxiableUUID",
      "outputs": [
        {
          "internalType": "bytes32",
          "name": "",
          "type": "bytes32"
        }
      ],
      "stateMutability": "view",
      "type": "function"
    },
    {
      "inputs": [],
      "name": "renounceOwnership",
      "outputs": [],
      "stateMutability": "nonpayable",
      "type": "function"
    },
    {
      "inputs": [
        {
          "internalType": "uint256",
          "name": "_minBidIncrementPercentage",
          "type": "uint256"
        }
      ],
      "name": "setMinBidIncrementPercentage",
      "outputs": [],
      "stateMutability": "nonpayable",
      "type": "function"
    },
    {
      "inputs": [
        {
          "internalType": "address",
          "name": "token",
          "type": "address"
        },
        {
          "internalType": "address",
          "name": "priceFeed",
          "type": "address"
        }
      ],
      "name": "setTokenPriceFeed",
      "outputs": [],
      "stateMutability": "nonpayable",
      "type": "function"
    },
    {
      "inputs": [
        {
          "internalType": "address",
          "name": "",
          "type": "address"
        }
      ],
      "name": "tokenUsdPriceFeeds",
      "outputs": [
        {
          "internalType": "contract AggregatorV3Interface",
          "name": "",
          "type": "address"
        }
      ],
      "stateMutability": "view",
      "type": "function"
    },
    {
      "inputs": [
        {
          "internalType": "address",
          "name": "newOwner",
          "type": "address"
        }
      ],
      "name": "transferOwnership",
      "outputs": [],
      "stateMutability": "nonpayable",
      "type": "function"
    },
    {
      "inputs": [
        {
          "internalType": "address",
          "name": "newImplementation",
          "type": "address"
        }
      ],
      "name": "upgradeTo",
      "outputs": [],
      "stateMutability": "nonpayable",
      "type": "function"
    },
    {
      "inputs": [
        {
          "internalType": "address",
          "name": "newImplementation",
          "type": "address"
        },
        {
          "internalType": "bytes",
          "name": "data",
          "type": "bytes"
        }
      ],
      "name": "upgradeToAndCall",
      "outputs": [],
      "stateMutability": "payable",
      "type": "function"
    },
    {
      "inputs": [],
      "name": "version",
      "outputs": [
        {
          "internalType": "string",
          "name": "",
          "type": "string"
        }
      ],
      "stateMutability": "pure",
      "type": "function"
    },
    {
      "stateMutability": "payable",
      "type": "receive"
    }
  ],
  "transactionHash": "0x33dcc4f2e40c008d7ac54bb78bcd32c5fa4eeec38e35cb7a8ebe44f1323d30cd",
  "args": [],
  "numDeployments": 1,
  "solcInputHash": "5bc55044b0d83067caca8769d0782476",
  "bytecode": "0x60a06040523073ffffffffffffffffffffffffffffffffffffffff1660809073ffffffffffffffffffffffffffffffffffffffff16815250348015604257600080fd5b5060805161441c61006c600039600081816126f10152818161274601526128f6015261441c6000f3fe6080604052600436106101c65760003560e01c80638375bb39116100f7578063b296024d11610095578063c45a015511610064578063c45a015514610612578063cb4e162b1461063d578063f2fde38b14610668578063fc52848214610691576101cd565b8063b296024d14610556578063b9a2de3a14610581578063bf654aac146105aa578063bf9fe138146105d5576101cd565b80639979ef45116100d15780639979ef45146104a957806399a5d747146104c5578063ad3cb1cc14610502578063b0b211da1461052d576101cd565b80638375bb391461042a5780638da5cb5b1461045557806396b5a75514610480576101cd565b8063571a26a011610164578063674417ae1161013e578063674417ae146103845780636c803886146103ad5780637089f2bf146103d6578063715018a614610413576101cd565b8063571a26a0146102ea5780635cd8a76b14610330578063628a9c9614610347576101cd565b80634f1ccb7a116101a05780634f1ccb7a1461024f5780634f1ef2861461027857806352d1902d1461029457806354fd4d50146102bf576101cd565b806318aee51b146101d25780633659cfe6146101fb57806342f6fb2914610224576101cd565b366101cd57005b600080fd5b3480156101de57600080fd5b506101f960048036038101906101f49190612fe9565b6106bc565b005b34801561020757600080fd5b50610222600480360381019061021d9190612fe9565b61082d565b005b34801561023057600080fd5b5061023961089d565b6040516102469190613075565b60405180910390f35b34801561025b57600080fd5b5061027660048036038101906102719190612fe9565b6108c3565b005b610292600480360381019061028d91906131d6565b610981565b005b3480156102a057600080fd5b506102a96109a0565b6040516102b6919061324b565b60405180910390f35b3480156102cb57600080fd5b506102d46109d3565b6040516102e191906132e5565b60405180910390f35b3480156102f657600080fd5b50610311600480360381019061030c919061333d565b610a10565b6040516103279a999897969594939291906133ff565b60405180910390f35b34801561033c57600080fd5b50610345610af1565b005b34801561035357600080fd5b5061036e60048036038101906103699190612fe9565b610b48565b60405161037b9190613075565b60405180910390f35b34801561039057600080fd5b506103ab60048036038101906103a6919061349b565b610b7b565b005b3480156103b957600080fd5b506103d460048036038101906103cf919061333d565b610c05565b005b3480156103e257600080fd5b506103fd60048036038101906103f891906134db565b610c5c565b60405161040a919061351b565b60405180910390f35b34801561041f57600080fd5b50610428610ebd565b005b34801561043657600080fd5b5061043f610ed1565b60405161044c919061351b565b60405180910390f35b34801561046157600080fd5b5061046a610ed7565b6040516104779190613536565b60405180910390f35b34801561048c57600080fd5b506104a760048036038101906104a2919061333d565b610f0f565b005b6104c360048036038101906104be919061333d565b611120565b005b3480156104d157600080fd5b506104ec60048036038101906104e7919061333d565b611786565b6040516104f9919061351b565b60405180910390f35b34801561050e57600080fd5b5061051761181c565b60405161052491906132e5565b60405180910390f35b34801561053957600080fd5b50610554600480360381019061054f9190613551565b611855565b005b34801561056257600080fd5b5061056b611e13565b604051610578919061351b565b60405180910390f35b34801561058d57600080fd5b506105a860048036038101906105a3919061333d565b611e19565b005b3480156105b657600080fd5b506105bf6122db565b6040516105cc919061351b565b60405180910390f35b3480156105e157600080fd5b506105fc60048036038101906105f791906135cc565b6122e1565b604051610609919061351b565b60405180910390f35b34801561061e57600080fd5b5061062761251c565b6040516106349190613536565b60405180910390f35b34801561064957600080fd5b50610652612542565b60405161065f919061351b565b60405180910390f35b34801561067457600080fd5b5061068f600480360381019061068a9190612fe9565b612548565b005b34801561069d57600080fd5b506106a66125ce565b6040516106b3919061351b565b60405180910390f35b600260009054906101000a900473ffffffffffffffffffffffffffffffffffffffff1673ffffffffffffffffffffffffffffffffffffffff163373ffffffffffffffffffffffffffffffffffffffff161461074c576040517f08c379a0000000000000000000000000000000000000000000000000000000008152600401610743906136cb565b60405180910390fd5b600073ffffffffffffffffffffffffffffffffffffffff168173ffffffffffffffffffffffffffffffffffffffff16036107bb576040517f08c379a00000000000000000000000000000000000000000000000000000000081526004016107b29061375d565b60405180910390fd5b6107c4816125d4565b807f360894a13ba1a3210667c828492db98dca3e2076cc3735a920a3ca505d382bbc558073ffffffffffffffffffffffffffffffffffffffff167f882a7faf45b8f5f760d29fc1bffccf8b38ffb43296a8e7465741024691c0b8f560405160405180910390a250565b6108356126ef565b61083e816125d4565b6108578160405180602001604052806000815250610981565b8073ffffffffffffffffffffffffffffffffffffffff167f882a7faf45b8f5f760d29fc1bffccf8b38ffb43296a8e7465741024691c0b8f560405160405180910390a250565b600360009054906101000a900473ffffffffffffffffffffffffffffffffffffffff1681565b8073ffffffffffffffffffffffffffffffffffffffff163373ffffffffffffffffffffffffffffffffffffffff1614610931576040517f08c379a0000000000000000000000000000000000000000000000000000000008152600401610928906136cb565b60405180910390fd5b600060085414610976576040517f08c379a000000000000000000000000000000000000000000000000000000000815260040161096d906137c9565b60405180910390fd5b603260088190555050565b6109896126ef565b610992826125d4565b61099c82826127d5565b5050565b60006109aa6128f4565b7f360894a13ba1a3210667c828492db98dca3e2076cc3735a920a3ca505d382bbc60001b905090565b60606040518060400160405280600281526020017f5632000000000000000000000000000000000000000000000000000000000000815250905090565b60006020528060005260406000206000915090508060000160009054906101000a900473ffffffffffffffffffffffffffffffffffffffff16908060010160009054906101000a900473ffffffffffffffffffffffffffffffffffffffff16908060020154908060030154908060040154908060050154908060060154908060070160009054906101000a900473ffffffffffffffffffffffffffffffffffffffff16908060080160009054906101000a900473ffffffffffffffffffffffffffffffffffffffff16908060080160149054906101000a900460ff1690508a565b610af961297b565b600060085414610b3e576040517f08c379a0000000000000000000000000000000000000000000000000000000008152600401610b35906137c9565b60405180910390fd5b6032600881905550565b60046020528060005260406000206000915054906101000a900473ffffffffffffffffffffffffffffffffffffffff1681565b610b8361297b565b80600460008473ffffffffffffffffffffffffffffffffffffffff1673ffffffffffffffffffffffffffffffffffffffff16815260200190815260200160002060006101000a81548173ffffffffffffffffffffffffffffffffffffffff021916908373ffffffffffffffffffffffffffffffffffffffff1602179055505050565b610c0d61297b565b6103e8811115610c52576040517f08c379a0000000000000000000000000000000000000000000000000000000008152600401610c4990613835565b60405180910390fd5b8060088190555050565b60008073ffffffffffffffffffffffffffffffffffffffff168373ffffffffffffffffffffffffffffffffffffffff1603610d4d576000600360009054906101000a900473ffffffffffffffffffffffffffffffffffffffff1673ffffffffffffffffffffffffffffffffffffffff1663feaf968c6040518163ffffffff1660e01b815260040160a060405180830381865afa158015610d00573d6000803e3d6000fd5b505050506040513d601f19601f82011682018060405250810190610d2491906138e2565b5050509150506305f5e1008184610d3b919061398c565b610d4591906139fd565b915050610eb7565b6000600460008573ffffffffffffffffffffffffffffffffffffffff1673ffffffffffffffffffffffffffffffffffffffff16815260200190815260200160002060009054906101000a900473ffffffffffffffffffffffffffffffffffffffff169050600073ffffffffffffffffffffffffffffffffffffffff168173ffffffffffffffffffffffffffffffffffffffff1603610e20576040517f08c379a0000000000000000000000000000000000000000000000000000000008152600401610e1790613a7a565b60405180910390fd5b60008173ffffffffffffffffffffffffffffffffffffffff1663feaf968c6040518163ffffffff1660e01b815260040160a060405180830381865afa158015610e6d573d6000803e3d6000fd5b505050506040513d601f19601f82011682018060405250810190610e9191906138e2565b5050509150506305f5e1008185610ea8919061398c565b610eb291906139fd565b925050505b92915050565b610ec561297b565b610ecf6000612a02565b565b60055481565b600080610ee2612ad9565b90508060000160009054906101000a900473ffffffffffffffffffffffffffffffffffffffff1691505090565b600080600083815260200190815260200160002090503373ffffffffffffffffffffffffffffffffffffffff168160000160009054906101000a900473ffffffffffffffffffffffffffffffffffffffff1673ffffffffffffffffffffffffffffffffffffffff1614610fb7576040517f08c379a0000000000000000000000000000000000000000000000000000000008152600401610fae90613ae6565b60405180910390fd5b60006002811115610fcb57610fca613388565b5b8160080160149054906101000a900460ff166002811115610fef57610fee613388565b5b1461102f576040517f08c379a000000000000000000000000000000000000000000000000000000000815260040161102690613b52565b60405180910390fd5b600073ffffffffffffffffffffffffffffffffffffffff168160070160009054906101000a900473ffffffffffffffffffffffffffffffffffffffff1673ffffffffffffffffffffffffffffffffffffffff16146110c2576040517f08c379a00000000000000000000000000000000000000000000000000000000081526004016110b990613bbe565b60405180910390fd5b60028160080160146101000a81548160ff021916908360028111156110ea576110e9613388565b5b0217905550817f2809c7e17bf978fbc7194c0a694b638c4215e9140cacc6c38ca36010b45697df60405160405180910390a25050565b600080600083815260200190815260200160002090506000600281111561114a57611149613388565b5b8160080160149054906101000a900460ff16600281111561116e5761116d613388565b5b146111ae576040517f08c379a00000000000000000000000000000000000000000000000000000000081526004016111a590613b52565b60405180910390fd5b806004015442106111f4576040517f08c379a00000000000000000000000000000000000000000000000000000000081526004016111eb90613c2a565b60405180910390fd5b60008073ffffffffffffffffffffffffffffffffffffffff168260080160009054906101000a900473ffffffffffffffffffffffffffffffffffffffff1673ffffffffffffffffffffffffffffffffffffffff16036112555734905061133b565b60003414611298576040517f08c379a000000000000000000000000000000000000000000000000000000000815260040161128f90613cbc565b60405180910390fd5b8160080160009054906101000a900473ffffffffffffffffffffffffffffffffffffffff1673ffffffffffffffffffffffffffffffffffffffff1663dd62ed3e33306040518363ffffffff1660e01b81526004016112f7929190613cdc565b602060405180830381865afa158015611314573d6000803e3d6000fd5b505050506040513d601f19601f820116820180604052508101906113389190613d05565b90505b81600601548111611381576040517f08c379a000000000000000000000000000000000000000000000000000000000815260040161137890613d7e565b60405180910390fd5b60006127106008548460060154611398919061398c565b6113a291906139fd565b90508083600601546113b49190613d9e565b8210156113f6576040517f08c379a00000000000000000000000000000000000000000000000000000000081526004016113ed90613e1e565b60405180910390fd5b600073ffffffffffffffffffffffffffffffffffffffff168360070160009054906101000a900473ffffffffffffffffffffffffffffffffffffffff1673ffffffffffffffffffffffffffffffffffffffff16146115e757600073ffffffffffffffffffffffffffffffffffffffff168360080160009054906101000a900473ffffffffffffffffffffffffffffffffffffffff1673ffffffffffffffffffffffffffffffffffffffff160361151a578260070160009054906101000a900473ffffffffffffffffffffffffffffffffffffffff1673ffffffffffffffffffffffffffffffffffffffff166108fc84600601549081150290604051600060405180830381858888f19350505050158015611514573d6000803e3d6000fd5b506115e6565b8260080160009054906101000a900473ffffffffffffffffffffffffffffffffffffffff1673ffffffffffffffffffffffffffffffffffffffff1663a9059cbb8460070160009054906101000a900473ffffffffffffffffffffffffffffffffffffffff1685600601546040518363ffffffff1660e01b81526004016115a1929190613e3e565b6020604051808303816000875af11580156115c0573d6000803e3d6000fd5b505050506040513d601f19601f820116820180604052508101906115e49190613e9f565b505b5b818360060181905550338360070160006101000a81548173ffffffffffffffffffffffffffffffffffffffff021916908373ffffffffffffffffffffffffffffffffffffffff160217905550600073ffffffffffffffffffffffffffffffffffffffff168360080160009054906101000a900473ffffffffffffffffffffffffffffffffffffffff1673ffffffffffffffffffffffffffffffffffffffff1614611731578260080160009054906101000a900473ffffffffffffffffffffffffffffffffffffffff1673ffffffffffffffffffffffffffffffffffffffff166323b872dd3330856040518463ffffffff1660e01b81526004016116ec93929190613ecc565b6020604051808303816000875af115801561170b573d6000803e3d6000fd5b505050506040513d601f19601f8201168201806040525081019061172f9190613e9f565b505b3373ffffffffffffffffffffffffffffffffffffffff16847f0e54eff26401bf69b81b26f60bd85ef47f5d85275c1d268d84f68d6897431c4784604051611778919061351b565b60405180910390a350505050565b600060075482116117b357612710600554836117a2919061398c565b6117ac91906139fd565b9050611817565b6000600754836117c39190613f03565b90506000612710600654836117d8919061398c565b6117e291906139fd565b905060006127106005546007546117f9919061398c565b61180391906139fd565b905081816118119190613d9e565b93505050505b919050565b6040518060400160405280600581526020017f352e302e3000000000000000000000000000000000000000000000000000000081525081565b3373ffffffffffffffffffffffffffffffffffffffff168573ffffffffffffffffffffffffffffffffffffffff16636352211e866040518263ffffffff1660e01b81526004016118a5919061351b565b602060405180830381865afa1580156118c2573d6000803e3d6000fd5b505050506040513d601f19601f820116820180604052508101906118e69190613f4c565b73ffffffffffffffffffffffffffffffffffffffff161461193c576040517f08c379a000000000000000000000000000000000000000000000000000000000815260040161193390613fc5565b60405180910390fd5b6000831161197f576040517f08c379a000000000000000000000000000000000000000000000000000000000815260040161197690614057565b60405180910390fd5b600082116119c2576040517f08c379a00000000000000000000000000000000000000000000000000000000081526004016119b9906140c3565b60405180910390fd5b8473ffffffffffffffffffffffffffffffffffffffff1663e985e9c533306040518363ffffffff1660e01b81526004016119fd929190613cdc565b602060405180830381865afa158015611a1a573d6000803e3d6000fd5b505050506040513d601f19601f82011682018060405250810190611a3e9190613e9f565b80611aed57503073ffffffffffffffffffffffffffffffffffffffff168573ffffffffffffffffffffffffffffffffffffffff1663081812fc866040518263ffffffff1660e01b8152600401611a94919061351b565b602060405180830381865afa158015611ab1573d6000803e3d6000fd5b505050506040513d601f19601f82011682018060405250810190611ad59190613f4c565b73ffffffffffffffffffffffffffffffffffffffff16145b611b2c576040517f08c379a0000000000000000000000000000000000000000000000000000000008152600401611b239061412f565b60405180910390fd5b600060016000815480929190611b419061414f565b919050559050600042905060008482611b5a9190613d9e565b90506040518061014001604052803373ffffffffffffffffffffffffffffffffffffffff1681526020018973ffffffffffffffffffffffffffffffffffffffff168152602001888152602001838152602001828152602001878152602001878152602001600073ffffffffffffffffffffffffffffffffffffffff1681526020018573ffffffffffffffffffffffffffffffffffffffff16815260200160006002811115611c0b57611c0a613388565b5b81525060008085815260200190815260200160002060008201518160000160006101000a81548173ffffffffffffffffffffffffffffffffffffffff021916908373ffffffffffffffffffffffffffffffffffffffff16021790555060208201518160010160006101000a81548173ffffffffffffffffffffffffffffffffffffffff021916908373ffffffffffffffffffffffffffffffffffffffff16021790555060408201518160020155606082015181600301556080820151816004015560a0820151816005015560c0820151816006015560e08201518160070160006101000a81548173ffffffffffffffffffffffffffffffffffffffff021916908373ffffffffffffffffffffffffffffffffffffffff1602179055506101008201518160080160006101000a81548173ffffffffffffffffffffffffffffffffffffffff021916908373ffffffffffffffffffffffffffffffffffffffff1602179055506101208201518160080160146101000a81548160ff02191690836002811115611d9b57611d9a613388565b5b02179055509050508773ffffffffffffffffffffffffffffffffffffffff163373ffffffffffffffffffffffffffffffffffffffff16847f8777bed2a899ba8843de663a1f6ed1c48d071cc8bde08e2488b59c00c1993f768a604051611e01919061351b565b60405180910390a45050505050505050565b60085481565b6000806000838152602001908152602001600020905060006002811115611e4357611e42613388565b5b8160080160149054906101000a900460ff166002811115611e6757611e66613388565b5b14611ea7576040517f08c379a0000000000000000000000000000000000000000000000000000000008152600401611e9e90613b52565b60405180910390fd5b8060040154421015611eee576040517f08c379a0000000000000000000000000000000000000000000000000000000008152600401611ee5906141e3565b60405180910390fd5b60018160080160146101000a81548160ff02191690836002811115611f1657611f15613388565b5b0217905550600073ffffffffffffffffffffffffffffffffffffffff168160070160009054906101000a900473ffffffffffffffffffffffffffffffffffffffff1673ffffffffffffffffffffffffffffffffffffffff1614612285576000611f828260060154611786565b90506000818360060154611f969190613f03565b90508260010160009054906101000a900473ffffffffffffffffffffffffffffffffffffffff1673ffffffffffffffffffffffffffffffffffffffff166342842e0e8460000160009054906101000a900473ffffffffffffffffffffffffffffffffffffffff168560070160009054906101000a900473ffffffffffffffffffffffffffffffffffffffff1686600201546040518463ffffffff1660e01b815260040161204593929190613ecc565b600060405180830381600087803b15801561205f57600080fd5b505af1158015612073573d6000803e3d6000fd5b50505050600073ffffffffffffffffffffffffffffffffffffffff168360080160009054906101000a900473ffffffffffffffffffffffffffffffffffffffff1673ffffffffffffffffffffffffffffffffffffffff160361213f578260000160009054906101000a900473ffffffffffffffffffffffffffffffffffffffff1673ffffffffffffffffffffffffffffffffffffffff166108fc829081150290604051600060405180830381858888f19350505050158015612139573d6000803e3d6000fd5b50612207565b8260080160009054906101000a900473ffffffffffffffffffffffffffffffffffffffff1673ffffffffffffffffffffffffffffffffffffffff1663a9059cbb8460000160009054906101000a900473ffffffffffffffffffffffffffffffffffffffff16836040518363ffffffff1660e01b81526004016121c2929190613e3e565b6020604051808303816000875af11580156121e1573d6000803e3d6000fd5b505050506040513d601f19601f820116820180604052508101906122059190613e9f565b505b8260070160009054906101000a900473ffffffffffffffffffffffffffffffffffffffff1673ffffffffffffffffffffffffffffffffffffffff16847fd2aa34a4fdbbc6dff6a3e56f46e0f3ae2a31d7785ff3487aa5c95c642acea5018560060154604051612276919061351b565b60405180910390a350506122d7565b600073ffffffffffffffffffffffffffffffffffffffff16827fd2aa34a4fdbbc6dff6a3e56f46e0f3ae2a31d7785ff3487aa5c95c642acea50160006040516122ce919061423e565b60405180910390a35b5050565b60065481565b6000806122ec612b01565b905060008160000160089054906101000a900460ff1615905060008260000160009054906101000a900467ffffffffffffffff1690506000808267ffffffffffffffff1614801561233a5750825b9050600060018367ffffffffffffffff1614801561236f575060003073ffffffffffffffffffffffffffffffffffffffff163b145b90508115801561237d575080155b156123b4576040517ff92ee8a900000000000000000000000000000000000000000000000000000000815260040160405180910390fd5b60018560000160006101000a81548167ffffffffffffffff021916908367ffffffffffffffff16021790555083156124045760018560000160086101000a81548160ff0219169083151502179055505b61240d88612b15565b8b600360006101000a81548173ffffffffffffffffffffffffffffffffffffffff021916908373ffffffffffffffffffffffffffffffffffffffff1602179055508a6005819055508960068190555088600781905550600060018190555086600260006101000a81548173ffffffffffffffffffffffffffffffffffffffff021916908373ffffffffffffffffffffffffffffffffffffffff1602179055506005549550831561250d5760008560000160086101000a81548160ff0219169083151502179055507fc7f505b2f371ae2175ee4913f4499e1f2633a7b5936321eed1cdaeb6115181d2600160405161250491906142a8565b60405180910390a15b50505050509695505050505050565b600260009054906101000a900473ffffffffffffffffffffffffffffffffffffffff1681565b60075481565b61255061297b565b600073ffffffffffffffffffffffffffffffffffffffff168173ffffffffffffffffffffffffffffffffffffffff16036125c25760006040517f1e4fbdf70000000000000000000000000000000000000000000000000000000081526004016125b99190613536565b60405180910390fd5b6125cb81612a02565b50565b60015481565b3073ffffffffffffffffffffffffffffffffffffffff166125f3612b29565b73ffffffffffffffffffffffffffffffffffffffff16148061264e5750612618610ed7565b73ffffffffffffffffffffffffffffffffffffffff16612636612b29565b73ffffffffffffffffffffffffffffffffffffffff16145b806126ad5750600260009054906101000a900473ffffffffffffffffffffffffffffffffffffffff1673ffffffffffffffffffffffffffffffffffffffff16612695612b29565b73ffffffffffffffffffffffffffffffffffffffff16145b6126ec576040517f08c379a00000000000000000000000000000000000000000000000000000000081526004016126e39061430f565b60405180910390fd5b50565b7f000000000000000000000000000000000000000000000000000000000000000073ffffffffffffffffffffffffffffffffffffffff163073ffffffffffffffffffffffffffffffffffffffff16148061279c57507f000000000000000000000000000000000000000000000000000000000000000073ffffffffffffffffffffffffffffffffffffffff16612783612b31565b73ffffffffffffffffffffffffffffffffffffffff1614155b156127d3576040517fe07c8dba00000000000000000000000000000000000000000000000000000000815260040160405180910390fd5b565b8173ffffffffffffffffffffffffffffffffffffffff166352d1902d6040518163ffffffff1660e01b8152600401602060405180830381865afa92505050801561283d57506040513d601f19601f8201168201806040525081019061283a919061435b565b60015b61287e57816040517f4c9c8ce30000000000000000000000000000000000000000000000000000000081526004016128759190613536565b60405180910390fd5b7f360894a13ba1a3210667c828492db98dca3e2076cc3735a920a3ca505d382bbc60001b81146128e557806040517faa1d49a40000000000000000000000000000000000000000000000000000000081526004016128dc919061324b565b60405180910390fd5b6128ef8383612b88565b505050565b7f000000000000000000000000000000000000000000000000000000000000000073ffffffffffffffffffffffffffffffffffffffff163073ffffffffffffffffffffffffffffffffffffffff1614612979576040517fe07c8dba00000000000000000000000000000000000000000000000000000000815260040160405180910390fd5b565b612983612b29565b73ffffffffffffffffffffffffffffffffffffffff166129a1610ed7565b73ffffffffffffffffffffffffffffffffffffffff1614612a00576129c4612b29565b6040517f118cdaa70000000000000000000000000000000000000000000000000000000081526004016129f79190613536565b60405180910390fd5b565b6000612a0c612ad9565b905060008160000160009054906101000a900473ffffffffffffffffffffffffffffffffffffffff169050828260000160006101000a81548173ffffffffffffffffffffffffffffffffffffffff021916908373ffffffffffffffffffffffffffffffffffffffff1602179055508273ffffffffffffffffffffffffffffffffffffffff168173ffffffffffffffffffffffffffffffffffffffff167f8be0079c531659141344cd1fd0a4f28419497f9722a3daafe3b4186f6b6457e060405160405180910390a3505050565b60007f9016d09d72d40fdae2fd8ceac6b6234c7706214fd39c1cd1e609a0528c199300905090565b600080612b0c612bfb565b90508091505090565b612b1d612c26565b612b2681612c66565b50565b600033905090565b6000612b5f7f360894a13ba1a3210667c828492db98dca3e2076cc3735a920a3ca505d382bbc60001b612cec565b60000160009054906101000a900473ffffffffffffffffffffffffffffffffffffffff16905090565b612b9182612cf6565b8173ffffffffffffffffffffffffffffffffffffffff167fbc7cd75a20ee27fd9adebab32041f755214dbc6bffa90cc0225b39da2e5c2d3b60405160405180910390a2600081511115612bee57612be88282612dc3565b50612bf7565b612bf6612e47565b5b5050565b60007ff0c57e16840df040f15088dc2f81fe391c3923bec73e23a9662efc9c229c6a0060001b905090565b612c2e612e84565b612c64576040517fd7e6bcf800000000000000000000000000000000000000000000000000000000815260040160405180910390fd5b565b612c6e612c26565b600073ffffffffffffffffffffffffffffffffffffffff168173ffffffffffffffffffffffffffffffffffffffff1603612ce05760006040517f1e4fbdf7000000000000000000000000000000000000000000000000000000008152600401612cd79190613536565b60405180910390fd5b612ce981612a02565b50565b6000819050919050565b60008173ffffffffffffffffffffffffffffffffffffffff163b03612d5257806040517f4c9c8ce3000000000000000000000000000000000000000000000000000000008152600401612d499190613536565b60405180910390fd5b80612d7f7f360894a13ba1a3210667c828492db98dca3e2076cc3735a920a3ca505d382bbc60001b612cec565b60000160006101000a81548173ffffffffffffffffffffffffffffffffffffffff021916908373ffffffffffffffffffffffffffffffffffffffff16021790555050565b60606000808473ffffffffffffffffffffffffffffffffffffffff1684604051612ded91906143cf565b600060405180830381855af49150503d8060008114612e28576040519150601f19603f3d011682016040523d82523d6000602084013e612e2d565b606091505b5091509150612e3d858383612ea4565b9250505092915050565b6000341115612e82576040517fb398979f00000000000000000000000000000000000000000000000000000000815260040160405180910390fd5b565b6000612e8e612b01565b60000160089054906101000a900460ff16905090565b606082612eb957612eb482612f33565b612f2b565b60008251148015612ee1575060008473ffffffffffffffffffffffffffffffffffffffff163b145b15612f2357836040517f9996b315000000000000000000000000000000000000000000000000000000008152600401612f1a9190613536565b60405180910390fd5b819050612f2c565b5b9392505050565b600081511115612f4557805160208201fd5b6040517fd6bda27500000000000000000000000000000000000000000000000000000000815260040160405180910390fd5b6000604051905090565b600080fd5b600080fd5b600073ffffffffffffffffffffffffffffffffffffffff82169050919050565b6000612fb682612f8b565b9050919050565b612fc681612fab565b8114612fd157600080fd5b50565b600081359050612fe381612fbd565b92915050565b600060208284031215612fff57612ffe612f81565b5b600061300d84828501612fd4565b91505092915050565b6000819050919050565b600061303b61303661303184612f8b565b613016565b612f8b565b9050919050565b600061304d82613020565b9050919050565b600061305f82613042565b9050919050565b61306f81613054565b82525050565b600060208201905061308a6000830184613066565b92915050565b600080fd5b600080fd5b6000601f19601f8301169050919050565b7f4e487b7100000000000000000000000000000000000000000000000000000000600052604160045260246000fd5b6130e38261309a565b810181811067ffffffffffffffff82111715613102576131016130ab565b5b80604052505050565b6000613115612f77565b905061312182826130da565b919050565b600067ffffffffffffffff821115613141576131406130ab565b5b61314a8261309a565b9050602081019050919050565b82818337600083830152505050565b600061317961317484613126565b61310b565b90508281526020810184848401111561319557613194613095565b5b6131a0848285613157565b509392505050565b600082601f8301126131bd576131bc613090565b5b81356131cd848260208601613166565b91505092915050565b600080604083850312156131ed576131ec612f81565b5b60006131fb85828601612fd4565b925050602083013567ffffffffffffffff81111561321c5761321b612f86565b5b613228858286016131a8565b9150509250929050565b6000819050919050565b61324581613232565b82525050565b6000602082019050613260600083018461323c565b92915050565b600081519050919050565b600082825260208201905092915050565b60005b838110156132a0578082015181840152602081019050613285565b60008484015250505050565b60006132b782613266565b6132c18185613271565b93506132d1818560208601613282565b6132da8161309a565b840191505092915050565b600060208201905081810360008301526132ff81846132ac565b905092915050565b6000819050919050565b61331a81613307565b811461332557600080fd5b50565b60008135905061333781613311565b92915050565b60006020828403121561335357613352612f81565b5b600061336184828501613328565b91505092915050565b61337381612fab565b82525050565b61338281613307565b82525050565b7f4e487b7100000000000000000000000000000000000000000000000000000000600052602160045260246000fd5b600381106133c8576133c7613388565b5b50565b60008190506133d9826133b7565b919050565b60006133e9826133cb565b9050919050565b6133f9816133de565b82525050565b600061014082019050613415600083018d61336a565b613422602083018c61336a565b61342f604083018b613379565b61343c606083018a613379565b6134496080830189613379565b61345660a0830188613379565b61346360c0830187613379565b61347060e083018661336a565b61347e61010083018561336a565b61348c6101208301846133f0565b9b9a5050505050505050505050565b600080604083850312156134b2576134b1612f81565b5b60006134c085828601612fd4565b92505060206134d185828601612fd4565b9150509250929050565b600080604083850312156134f2576134f1612f81565b5b600061350085828601612fd4565b925050602061351185828601613328565b9150509250929050565b60006020820190506135306000830184613379565b92915050565b600060208201905061354b600083018461336a565b92915050565b600080600080600060a0868803121561356d5761356c612f81565b5b600061357b88828901612fd4565b955050602061358c88828901613328565b945050604061359d88828901613328565b93505060606135ae88828901613328565b92505060806135bf88828901612fd4565b9150509295509295909350565b60008060008060008060c087890312156135e9576135e8612f81565b5b60006135f789828a01612fd4565b965050602061360889828a01613328565b955050604061361989828a01613328565b945050606061362a89828a01613328565b935050608061363b89828a01612fd4565b92505060a061364c89828a01612fd4565b9150509295509295509295565b7f4f6e6c7920666163746f72792063616e2063616c6c20746869732066756e637460008201527f696f6e0000000000000000000000000000000000000000000000000000000000602082015250565b60006136b5602383613271565b91506136c082613659565b604082019050919050565b600060208201905081810360008301526136e4816136a8565b9050919050565b7f4e657720696d706c656d656e746174696f6e2063616e6e6f74206265207a657260008201527f6f20616464726573730000000000000000000000000000000000000000000000602082015250565b6000613747602983613271565b9150613752826136eb565b604082019050919050565b600060208201905081810360008301526137768161373a565b9050919050565b7f563220616c726561647920696e697469616c697a656400000000000000000000600082015250565b60006137b3601683613271565b91506137be8261377d565b602082019050919050565b600060208201905081810360008301526137e2816137a6565b9050919050565b7f496e6372656d656e7420746f6f20686967680000000000000000000000000000600082015250565b600061381f601283613271565b915061382a826137e9565b602082019050919050565b6000602082019050818103600083015261384e81613812565b9050919050565b600069ffffffffffffffffffff82169050919050565b61387481613855565b811461387f57600080fd5b50565b6000815190506138918161386b565b92915050565b6000819050919050565b6138aa81613897565b81146138b557600080fd5b50565b6000815190506138c7816138a1565b92915050565b6000815190506138dc81613311565b92915050565b600080600080600060a086880312156138fe576138fd612f81565b5b600061390c88828901613882565b955050602061391d888289016138b8565b945050604061392e888289016138cd565b935050606061393f888289016138cd565b925050608061395088828901613882565b9150509295509295909350565b7f4e487b7100000000000000000000000000000000000000000000000000000000600052601160045260246000fd5b600061399782613307565b91506139a283613307565b92508282026139b081613307565b915082820484148315176139c7576139c661395d565b5b5092915050565b7f4e487b7100000000000000000000000000000000000000000000000000000000600052601260045260246000fd5b6000613a0882613307565b9150613a1383613307565b925082613a2357613a226139ce565b5b828204905092915050565b7f4e6f207072696365206665656420666f7220746f6b656e000000000000000000600082015250565b6000613a64601783613271565b9150613a6f82613a2e565b602082019050919050565b60006020820190508181036000830152613a9381613a57565b9050919050565b7f4f6e6c792073656c6c65722063616e2063616e63656c00000000000000000000600082015250565b6000613ad0601683613271565b9150613adb82613a9a565b602082019050919050565b60006020820190508181036000830152613aff81613ac3565b9050919050565b7f41756374696f6e206e6f74206163746976650000000000000000000000000000600082015250565b6000613b3c601283613271565b9150613b4782613b06565b602082019050919050565b60006020820190508181036000830152613b6b81613b2f565b9050919050565b7f43616e6e6f742063616e63656c20616674657220626964730000000000000000600082015250565b6000613ba8601883613271565b9150613bb382613b72565b602082019050919050565b60006020820190508181036000830152613bd781613b9b565b9050919050565b7f41756374696f6e20656e64656400000000000000000000000000000000000000600082015250565b6000613c14600d83613271565b9150613c1f82613bde565b602082019050919050565b60006020820190508181036000830152613c4381613c07565b9050919050565b7f43616e6e6f742073656e642045544820666f722045524332302061756374696f60008201527f6e00000000000000000000000000000000000000000000000000000000000000602082015250565b6000613ca6602183613271565b9150613cb182613c4a565b604082019050919050565b60006020820190508181036000830152613cd581613c99565b9050919050565b6000604082019050613cf1600083018561336a565b613cfe602083018461336a565b9392505050565b600060208284031215613d1b57613d1a612f81565b5b6000613d29848285016138cd565b91505092915050565b7f42696420746f6f206c6f77000000000000000000000000000000000000000000600082015250565b6000613d68600b83613271565b9150613d7382613d32565b602082019050919050565b60006020820190508181036000830152613d9781613d5b565b9050919050565b6000613da982613307565b9150613db483613307565b9250828201905080821115613dcc57613dcb61395d565b5b92915050565b7f42696420696e6372656d656e7420746f6f206c6f770000000000000000000000600082015250565b6000613e08601583613271565b9150613e1382613dd2565b602082019050919050565b60006020820190508181036000830152613e3781613dfb565b9050919050565b6000604082019050613e53600083018561336a565b613e606020830184613379565b9392505050565b60008115159050919050565b613e7c81613e67565b8114613e8757600080fd5b50565b600081519050613e9981613e73565b92915050565b600060208284031215613eb557613eb4612f81565b5b6000613ec384828501613e8a565b91505092915050565b6000606082019050613ee1600083018661336a565b613eee602083018561336a565b613efb6040830184613379565b949350505050565b6000613f0e82613307565b9150613f1983613307565b9250828203905081811115613f3157613f3061395d565b5b92915050565b600081519050613f4681612fbd565b92915050565b600060208284031215613f6257613f61612f81565b5b6000613f7084828501613f37565b91505092915050565b7f4e6f74206f776e6572206f66204e465400000000000000000000000000000000600082015250565b6000613faf601083613271565b9150613fba82613f79565b602082019050919050565b60006020820190508181036000830152613fde81613fa2565b9050919050565b7f5374617274696e67207072696365206d7573742062652067726561746572207460008201527f68616e2030000000000000000000000000000000000000000000000000000000602082015250565b6000614041602583613271565b915061404c82613fe5565b604082019050919050565b6000602082019050818103600083015261407081614034565b9050919050565b7f4475726174696f6e206d7573742062652067726561746572207468616e203000600082015250565b60006140ad601f83613271565b91506140b882614077565b602082019050919050565b600060208201905081810360008301526140dc816140a0565b9050919050565b7f4e4654206e6f7420617070726f76656400000000000000000000000000000000600082015250565b6000614119601083613271565b9150614124826140e3565b602082019050919050565b600060208201905081810360008301526141488161410c565b9050919050565b600061415a82613307565b91507fffffffffffffffffffffffffffffffffffffffffffffffffffffffffffffffff820361418c5761418b61395d565b5b600182019050919050565b7f41756374696f6e206e6f7420656e646564207965740000000000000000000000600082015250565b60006141cd601583613271565b91506141d882614197565b602082019050919050565b600060208201905081810360008301526141fc816141c0565b9050919050565b6000819050919050565b600061422861422361421e84614203565b613016565b613307565b9050919050565b6142388161420d565b82525050565b6000602082019050614253600083018461422f565b92915050565b6000819050919050565b600067ffffffffffffffff82169050919050565b600061429261428d61428884614259565b613016565b614263565b9050919050565b6142a281614277565b82525050565b60006020820190506142bd6000830184614299565b92915050565b7f55555053556e617574686f72697a656443616c6c436f6e746578740000000000600082015250565b60006142f9601b83613271565b9150614304826142c3565b602082019050919050565b60006020820190508181036000830152614328816142ec565b9050919050565b61433881613232565b811461434357600080fd5b50565b6000815190506143558161432f565b92915050565b60006020828403121561437157614370612f81565b5b600061437f84828501614346565b91505092915050565b600081519050919050565b600081905092915050565b60006143a982614388565b6143b38185614393565b93506143c3818560208601613282565b80840191505092915050565b60006143db828461439e565b91508190509291505056fea264697066735822122028e0cdf69428c161a6580a785961279e36a8ee792ed5b98551be1640b0e9114364736f6c634300081c0033",
  "devdoc": {
    "errors": {
      "AddressEmptyCode(address)": [
        {
          "details": "There's no code at `target` (it is not a contract)."
        }
      ],
      "ERC1967InvalidImplementation(address)": [
        {
          "details": "The `implementation` of the proxy is invalid."
        }
      ],
      "ERC1967NonPayable()": [
        {
          "details": "An upgrade function sees `msg.value > 0` that may be lost."
        }
      ],
      "FailedCall()": [
        {
          "details": "A call to an address target failed. The target may have reverted."
        }
      ],
      "InvalidInitialization()": [
        {
          "details": "The contract is already initialized."
        }
      ],
      "NotInitializing()": [
        {
          "details": "The contract is not initializing."
        }
      ],
      "OwnableInvalidOwner(address)": [
        {
          "details": "The owner is not a valid owner account. (eg. `address(0)`)"
        }
      ],
      "OwnableUnauthorizedAccount(address)": [
        {
          "details": "The caller account is not authorized to perform an operation."
        }
      ],
      "UUPSUnauthorizedCallContext()": [
        {
          "details": "The call is from an unauthorized context."
        }
      ],
      "UUPSUnsupportedProxiableUUID(bytes32)": [
        {
          "details": "The storage `slot` is unsupported as a UUID."
        }
      ]
    },
    "events": {
      "Initialized(uint64)": {
        "details": "Triggered when the contract has been initialized or reinitialized."
      },
      "Upgraded(address)": {
        "details": "Emitted when the implementation is upgraded."
      }
    },
    "kind": "dev",
    "methods": {
      "owner()": {
        "details": "Returns the address of the current owner."
      },
      "proxiableUUID()": {
        "details": "Implementation of the ERC-1822 {proxiableUUID} function. This returns the storage slot used by the implementation. It is used to validate the implementation's compatibility when performing an upgrade. IMPORTANT: A proxy pointing at a proxiable contract should not be considered proxiable itself, because this risks bricking a proxy that upgrades to it, by delegating to itself until out of gas. Thus it is critical that this function revert if invoked through a proxy. This is guaranteed by the `notDelegated` modifier."
      },
      "renounceOwnership()": {
        "details": "Leaves the contract without owner. It will not be possible to call `onlyOwner` functions. Can only be called by the current owner. NOTE: Renouncing ownership will leave the contract without an owner, thereby disabling any functionality that is only available to the owner."
      },
      "transferOwnership(address)": {
        "details": "Transfers ownership of the contract to a new account (`newOwner`). Can only be called by the current owner."
      },
      "upgradeToAndCall(address,bytes)": {
        "custom:oz-upgrades-unsafe-allow-reachable": "delegatecall",
        "details": "Upgrade the implementation of the proxy to `newImplementation`, and subsequently execute the function call encoded in `data`. Calls {_authorizeUpgrade}. Emits an {Upgraded} event."
      }
    },
    "version": 1
  },
  "userdoc": {
    "kind": "user",
    "methods": {},
    "version": 1
  },
  "storageLayout": {
    "storage": [
      {
        "astId": 1729,
        "contract": "contracts/AuctionV2.sol:AuctionV2",
        "label": "auctions",
        "offset": 0,
        "slot": "0",
        "type": "t_mapping(t_uint256,t_struct(AuctionInfo)1724_storage)"
      },
      {
        "astId": 1731,
        "contract": "contracts/AuctionV2.sol:AuctionV2",
        "label": "nextAuctionId",
        "offset": 0,
        "slot": "1",
        "type": "t_uint256"
      },
      {
        "astId": 1733,
        "contract": "contracts/AuctionV2.sol:AuctionV2",
        "label": "factory",
        "offset": 0,
        "slot": "2",
        "type": "t_address"
      },
      {
        "astId": 1736,
        "contract": "contracts/AuctionV2.sol:AuctionV2",
        "label": "ethUsdPriceFeed",
        "offset": 0,
        "slot": "3",
        "type": "t_contract(AggregatorV3Interface)45"
      },
      {
        "astId": 1741,
        "contract": "contracts/AuctionV2.sol:AuctionV2",
        "label": "tokenUsdPriceFeeds",
        "offset": 0,
        "slot": "4",
        "type": "t_mapping(t_address,t_contract(AggregatorV3Interface)45)"
      },
      {
        "astId": 1743,
        "contract": "contracts/AuctionV2.sol:AuctionV2",
        "label": "baseFeePercentage",
        "offset": 0,
        "slot": "5",
        "type": "t_uint256"
      },
      {
        "astId": 1745,
        "contract": "contracts/AuctionV2.sol:AuctionV2",
        "label": "maxFeePercentage",
        "offset": 0,
        "slot": "6",
        "type": "t_uint256"
      },
      {
        "astId": 1747,
        "contract": "contracts/AuctionV2.sol:AuctionV2",
        "label": "feeThreshold",
        "offset": 0,
        "slot": "7",
        "type": "t_uint256"
      },
      {
        "astId": 3053,
        "contract": "contracts/AuctionV2.sol:AuctionV2",
        "label": "minBidIncrementPercentage",
        "offset": 0,
        "slot": "8",
        "type": "t_uint256"
      }
    ],
    "types": {
      "t_address": {
        "encoding": "inplace",
        "label": "address",
        "numberOfBytes": "20"
      },
      "t_contract(AggregatorV3Interface)45": {
        "encoding": "inplace",
        "label": "contract AggregatorV3Interface",
        "numberOfBytes": "20"
      },
      "t_enum(AuctionStatus)1702": {
        "encoding": "inplace",
        "label": "enum Auction.AuctionStatus",
        "numberOfBytes": "1"
      },
      "t_mapping(t_address,t_contract(AggregatorV3Interface)45)": {
        "encoding": "mapping",
        "key": "t_address",
        "label": "mapping(address => contract AggregatorV3Interface)",
        "numberOfBytes": "32",
        "value": "t_contract(AggregatorV3Interface)45"
      },
      "t_mapping(t_uint256,t_struct(AuctionInfo)1724_storage)": {
        "encoding": "mapping",
        "key": "t_uint256",
        "label": "mapping(uint256 => struct Auction.AuctionInfo)",
        "numberOfBytes": "32",
        "value": "t_struct(AuctionInfo)1724_storage"
      },
      "t_struct(AuctionInfo)1724_storage": {
        "encoding": "inplace",
        "label": "struct Auction.AuctionInfo",
        "members": [
          {
            "astId": 1704,
            "contract": "contracts/AuctionV2.sol:AuctionV2",
            "label": "seller",
            "offset": 0,
            "slot": "0",
            "type": "t_address"
          },
          {
            "astId": 1706,
            "contract": "contracts/AuctionV2.sol:AuctionV2",
            "label": "nftContract",
            "offset": 0,
            "slot": "1",
            "type": "t_address"
          },
          {
            "astId": 1708,
            "contract": "contracts/AuctionV2.sol:AuctionV2",
            "label": "nftId",
            "offset": 0,
            "slot": "2",
            "type": "t_uint256"
          },
          {
            "astId": 1710,
            "contract": "contracts/AuctionV2.sol:AuctionV2",
            "label": "startTime",
            "offset": 0,
            "slot": "3",
            "type": "t_uint256"
          },
          {
            "astId": 1712,
            "contract": "contracts/AuctionV2.sol:AuctionV2",
            "label": "endTime",
            "offset": 0,
            "slot": "4",
            "type": "t_uint256"
          },
          {
            "astId": 1714,
            "contract": "contracts/AuctionV2.sol:AuctionV2",
            "label": "startingPrice",
            "offset": 0,
            "slot": "5",
            "type": "t_uint256"
          },
          {
            "astId": 1716,
            "contract": "contracts/AuctionV2.sol:AuctionV2",
            "label": "currentPrice",
            "offset": 0,
            "slot": "6",
            "type": "t_uint256"
          },
          {
            "astId": 1718,
            "contract": "contracts/AuctionV2.sol:AuctionV2",
            "label": "currentWinner",
            "offset": 0,
            "slot": "7",
            "type": "t_address"
          },
          {
            "astId": 1720,
            "contract": "contracts/AuctionV2.sol:AuctionV2",
            "label": "paymentToken",
            "offset": 0,
            "slot": "8",
            "type": "t_address"
          },
          {
            "astId": 1723,
            "contract": "contracts/AuctionV2.sol:AuctionV2",
            "label": "status",
            "offset": 20,
            "slot": "8",
            "type": "t_enum(AuctionStatus)1702"
          }
        ],
        "numberOfBytes": "288"
      },
      "t_uint256": {
        "encoding": "inplace",
        "label": "uint256",
        "numberOfBytes": "32"
      }
    }
  }
}