{
  "_format": "hh-sol-artifact-1",
  "contractName": "Counter",
  "sourceName": "contracts/Counter.sol",
  "abi": [
    {
      "inputs": [],
      "stateMutability": "nonpayable",
      "type": "constructor"
    },
    {
      "anonymous": false,
      "inputs": [
        {
          "indexed": false,
          "internalType": "string",
          "name": "action",
          "type": "string"
        },
        {
          "indexed": false,
          "internalType": "uint256",
          "name": "newCount",
          "type": "uint256"
        }
      ],
      "name": "CountChanged",
      "type": "event"
    },
    {
      "inputs": [],
      "name": "decrement",
      "outputs": [],
      "stateMutability": "nonpayable",
      "type": "function"
    },
    {
      "inputs": [],
      "name": "getCount",
      "outputs": [
        {
          "internalType": "uint256",
          "name": "",
          "type": "uint256"
        }
      ],
      "stateMutability": "view",
      "type": "function"
    },
    {
      "inputs": [],
      "name": "increment",
      "outputs": [],
      "stateMutability": "nonpayable",
      "type": "function"
    },
    {
      "inputs": [],
      "name": "reset",
      "outputs": [],
      "stateMutability": "nonpayable",
      "type": "function"
    }
  ],
  "bytecode": "0x6080604052348015600f57600080fd5b5060008081905550610560806100266000396000f3fe608060405234801561001057600080fd5b506004361061004c5760003560e01c80632baeceb714610051578063a87d942c1461005b578063d09de08a14610079578063d826f88f14610083575b600080fd5b61005961008d565b005b610063610125565b6040516100709190610221565b60405180910390f35b61008161012e565b005b61008b610182565b005b60008054116100d1576040517f08c379a00000000000000000000000000000000000000000000000000000000081526004016100c890610299565b60405180910390fd5b60016000808282546100e391906102e8565b925050819055507f59b8172a79197d3a4db2d87bd470a8960c465c78777ff9e268b6bf1ab2c6a07060005460405161011b9190610368565b60405180910390a1565b60008054905090565b60016000808282546101409190610396565b925050819055507f59b8172a79197d3a4db2d87bd470a8960c465c78777ff9e268b6bf1ab2c6a0706000546040516101789190610416565b60405180910390a1565b60008054116101c6576040517f08c379a00000000000000000000000000000000000000000000000000000000081526004016101bd90610490565b60405180910390fd5b600080819055507f59b8172a79197d3a4db2d87bd470a8960c465c78777ff9e268b6bf1ab2c6a0706000546040516101fe91906104fc565b60405180910390a1565b6000819050919050565b61021b81610208565b82525050565b60006020820190506102366000830184610212565b92915050565b600082825260208201905092915050565b7f436f756e742063616e6e6f74206265206e656761746976650000000000000000600082015250565b600061028360188361023c565b915061028e8261024d565b602082019050919050565b600060208201905081810360008301526102b281610276565b9050919050565b7f4e487b7100000000000000000000000000000000000000000000000000000000600052601160045260246000fd5b60006102f382610208565b91506102fe83610208565b9250828203905081811115610316576103156102b9565b5b92915050565b7f64656372656d656e740000000000000000000000000000000000000000000000600082015250565b600061035260098361023c565b915061035d8261031c565b602082019050919050565b6000604082019050818103600083015261038181610345565b90506103906020830184610212565b92915050565b60006103a182610208565b91506103ac83610208565b92508282019050808211156103c4576103c36102b9565b5b92915050565b7f696e6372656d656e740000000000000000000000000000000000000000000000600082015250565b600061040060098361023c565b915061040b826103ca565b602082019050919050565b6000604082019050818103600083015261042f816103f3565b905061043e6020830184610212565b92915050565b7f436f756e74206d7573742062652067726561746572207468616e203000000000600082015250565b600061047a601c8361023c565b915061048582610444565b602082019050919050565b600060208201905081810360008301526104a98161046d565b9050919050565b7f7265736574000000000000000000000000000000000000000000000000000000600082015250565b60006104e660058361023c565b91506104f1826104b0565b602082019050919050565b60006040820190508181036000830152610515816104d9565b90506105246020830184610212565b9291505056fea264697066735822122001d74caf4e7ffd4a9974ddcadda4cb9c3c609c57b7cec4fab233fd539b148a9f64736f6c634300081c0033",
  "linkReferences": {},
  "deployedLinkReferences": {}
}