{
  "contracts/Counter.sol": {
    "Counter": {
      "abi": [
        {
          "inputs": [],
          "stateMutability": "nonpayable",
          "type": "constructor"
        },
        {
          "anonymous": false,
          "inputs": [
            {
              "indexed": false,
              "internalType": "string",
              "name": "action",
              "type": "string"
            },
            {
              "indexed": false,
              "internalType": "uint256",
              "name": "newCount",
              "type": "uint256"
            }
          ],
          "name": "CountChanged",
          "type": "event"
        },
        {
          "inputs": [],
          "name": "decrement",
          "outputs": [],
          "stateMutability": "nonpayable",
          "type": "function"
        },
        {
          "inputs": [],
          "name": "getCount",
          "outputs": [
            {
              "internalType": "uint256",
              "name": "",
              "type": "uint256"
            }
          ],
          "stateMutability": "view",
          "type": "function"
        },
        {
          "inputs": [],
          "name": "increment",
          "outputs": [],
          "stateMutability": "nonpayable",
          "type": "function"
        },
        {
          "inputs": [],
          "name": "reset",
          "outputs": [],
          "stateMutability": "nonpayable",
          "type": "function"
        }
      ],
      "evm": {
        "bytecode": {
          "linkReferences": {},
          "object": "6080604052348015600f57600080fd5b5060008081905550610560806100266000396000f3fe608060405234801561001057600080fd5b506004361061004c5760003560e01c80632baeceb714610051578063a87d942c1461005b578063d09de08a14610079578063d826f88f14610083575b600080fd5b61005961008d565b005b610063610125565b6040516100709190610221565b60405180910390f35b61008161012e565b005b61008b610182565b005b60008054116100d1576040517f08c379a00000000000000000000000000000000000000000000000000000000081526004016100c890610299565b60405180910390fd5b60016000808282546100e391906102e8565b925050819055507f59b8172a79197d3a4db2d87bd470a8960c465c78777ff9e268b6bf1ab2c6a07060005460405161011b9190610368565b60405180910390a1565b60008054905090565b60016000808282546101409190610396565b925050819055507f59b8172a79197d3a4db2d87bd470a8960c465c78777ff9e268b6bf1ab2c6a0706000546040516101789190610416565b60405180910390a1565b60008054116101c6576040517f08c379a00000000000000000000000000000000000000000000000000000000081526004016101bd90610490565b60405180910390fd5b600080819055507f59b8172a79197d3a4db2d87bd470a8960c465c78777ff9e268b6bf1ab2c6a0706000546040516101fe91906104fc565b60405180910390a1565b6000819050919050565b61021b81610208565b82525050565b60006020820190506102366000830184610212565b92915050565b600082825260208201905092915050565b7f436f756e742063616e6e6f74206265206e656761746976650000000000000000600082015250565b600061028360188361023c565b915061028e8261024d565b602082019050919050565b600060208201905081810360008301526102b281610276565b9050919050565b7f4e487b7100000000000000000000000000000000000000000000000000000000600052601160045260246000fd5b60006102f382610208565b91506102fe83610208565b9250828203905081811115610316576103156102b9565b5b92915050565b7f64656372656d656e740000000000000000000000000000000000000000000000600082015250565b600061035260098361023c565b915061035d8261031c565b602082019050919050565b6000604082019050818103600083015261038181610345565b90506103906020830184610212565b92915050565b60006103a182610208565b91506103ac83610208565b92508282019050808211156103c4576103c36102b9565b5b92915050565b7f696e6372656d656e740000000000000000000000000000000000000000000000600082015250565b600061040060098361023c565b915061040b826103ca565b602082019050919050565b6000604082019050818103600083015261042f816103f3565b905061043e6020830184610212565b92915050565b7f436f756e74206d7573742062652067726561746572207468616e203000000000600082015250565b600061047a601c8361023c565b915061048582610444565b602082019050919050565b600060208201905081810360008301526104a98161046d565b9050919050565b7f7265736574000000000000000000000000000000000000000000000000000000600082015250565b60006104e660058361023c565b91506104f1826104b0565b602082019050919050565b60006040820190508181036000830152610515816104d9565b90506105246020830184610212565b9291505056fea264697066735822122001d74caf4e7ffd4a9974ddcadda4cb9c3c609c57b7cec4fab233fd539b148a9f64736f6c634300081c0033",
          "opcodes": "PUSH1 0x80 PUSH1 0x40 MSTORE CALLVALUE DUP1 ISZERO PUSH1 0xF JUMPI PUSH1 0x0 DUP1 REVERT JUMPDEST POP PUSH1 0x0 DUP1 DUP2 SWAP1 SSTORE POP PUSH2 0x560 DUP1 PUSH2 0x26 PUSH1 0x0 CODECOPY PUSH1 0x0 RETURN INVALID PUSH1 0x80 PUSH1 0x40 MSTORE CALLVALUE DUP1 ISZERO PUSH2 0x10 JUMPI PUSH1 0x0 DUP1 REVERT JUMPDEST POP PUSH1 0x4 CALLDATASIZE LT PUSH2 0x4C JUMPI PUSH1 0x0 CALLDATALOAD PUSH1 0xE0 SHR DUP1 PUSH4 0x2BAECEB7 EQ PUSH2 0x51 JUMPI DUP1 PUSH4 0xA87D942C EQ PUSH2 0x5B JUMPI DUP1 PUSH4 0xD09DE08A EQ PUSH2 0x79 JUMPI DUP1 PUSH4 0xD826F88F EQ PUSH2 0x83 JUMPI JUMPDEST PUSH1 0x0 DUP1 REVERT JUMPDEST PUSH2 0x59 PUSH2 0x8D JUMP JUMPDEST STOP JUMPDEST PUSH2 0x63 PUSH2 0x125 JUMP JUMPDEST PUSH1 0x40 MLOAD PUSH2 0x70 SWAP2 SWAP1 PUSH2 0x221 JUMP JUMPDEST PUSH1 0x40 MLOAD DUP1 SWAP2 SUB SWAP1 RETURN JUMPDEST PUSH2 0x81 PUSH2 0x12E JUMP JUMPDEST STOP JUMPDEST PUSH2 0x8B PUSH2 0x182 JUMP JUMPDEST STOP JUMPDEST PUSH1 0x0 DUP1 SLOAD GT PUSH2 0xD1 JUMPI PUSH1 0x40 MLOAD PUSH32 0x8C379A000000000000000000000000000000000000000000000000000000000 DUP2 MSTORE PUSH1 0x4 ADD PUSH2 0xC8 SWAP1 PUSH2 0x299 JUMP JUMPDEST PUSH1 0x40 MLOAD DUP1 SWAP2 SUB SWAP1 REVERT JUMPDEST PUSH1 0x1 PUSH1 0x0 DUP1 DUP3 DUP3 SLOAD PUSH2 0xE3 SWAP2 SWAP1 PUSH2 0x2E8 JUMP JUMPDEST SWAP3 POP POP DUP2 SWAP1 SSTORE POP PUSH32 0x59B8172A79197D3A4DB2D87BD470A8960C465C78777FF9E268B6BF1AB2C6A070 PUSH1 0x0 SLOAD PUSH1 0x40 MLOAD PUSH2 0x11B SWAP2 SWAP1 PUSH2 0x368 JUMP JUMPDEST PUSH1 0x40 MLOAD DUP1 SWAP2 SUB SWAP1 LOG1 JUMP JUMPDEST PUSH1 0x0 DUP1 SLOAD SWAP1 POP SWAP1 JUMP JUMPDEST PUSH1 0x1 PUSH1 0x0 DUP1 DUP3 DUP3 SLOAD PUSH2 0x140 SWAP2 SWAP1 PUSH2 0x396 JUMP JUMPDEST SWAP3 POP POP DUP2 SWAP1 SSTORE POP PUSH32 0x59B8172A79197D3A4DB2D87BD470A8960C465C78777FF9E268B6BF1AB2C6A070 PUSH1 0x0 SLOAD PUSH1 0x40 MLOAD PUSH2 0x178 SWAP2 SWAP1 PUSH2 0x416 JUMP JUMPDEST PUSH1 0x40 MLOAD DUP1 SWAP2 SUB SWAP1 LOG1 JUMP JUMPDEST PUSH1 0x0 DUP1 SLOAD GT PUSH2 0x1C6 JUMPI PUSH1 0x40 MLOAD PUSH32 0x8C379A000000000000000000000000000000000000000000000000000000000 DUP2 MSTORE PUSH1 0x4 ADD PUSH2 0x1BD SWAP1 PUSH2 0x490 JUMP JUMPDEST PUSH1 0x40 MLOAD DUP1 SWAP2 SUB SWAP1 REVERT JUMPDEST PUSH1 0x0 DUP1 DUP2 SWAP1 SSTORE POP PUSH32 0x59B8172A79197D3A4DB2D87BD470A8960C465C78777FF9E268B6BF1AB2C6A070 PUSH1 0x0 SLOAD PUSH1 0x40 MLOAD PUSH2 0x1FE SWAP2 SWAP1 PUSH2 0x4FC JUMP JUMPDEST PUSH1 0x40 MLOAD DUP1 SWAP2 SUB SWAP1 LOG1 JUMP JUMPDEST PUSH1 0x0 DUP2 SWAP1 POP SWAP2 SWAP1 POP JUMP JUMPDEST PUSH2 0x21B DUP2 PUSH2 0x208 JUMP JUMPDEST DUP3 MSTORE POP POP JUMP JUMPDEST PUSH1 0x0 PUSH1 0x20 DUP3 ADD SWAP1 POP PUSH2 0x236 PUSH1 0x0 DUP4 ADD DUP5 PUSH2 0x212 JUMP JUMPDEST SWAP3 SWAP2 POP POP JUMP JUMPDEST PUSH1 0x0 DUP3 DUP3 MSTORE PUSH1 0x20 DUP3 ADD SWAP1 POP SWAP3 SWAP2 POP POP JUMP JUMPDEST PUSH32 0x436F756E742063616E6E6F74206265206E656761746976650000000000000000 PUSH1 0x0 DUP3 ADD MSTORE POP JUMP JUMPDEST PUSH1 0x0 PUSH2 0x283 PUSH1 0x18 DUP4 PUSH2 0x23C JUMP JUMPDEST SWAP2 POP PUSH2 0x28E DUP3 PUSH2 0x24D JUMP JUMPDEST PUSH1 0x20 DUP3 ADD SWAP1 POP SWAP2 SWAP1 POP JUMP JUMPDEST PUSH1 0x0 PUSH1 0x20 DUP3 ADD SWAP1 POP DUP2 DUP2 SUB PUSH1 0x0 DUP4 ADD MSTORE PUSH2 0x2B2 DUP2 PUSH2 0x276 JUMP JUMPDEST SWAP1 POP SWAP2 SWAP1 POP JUMP JUMPDEST PUSH32 0x4E487B7100000000000000000000000000000000000000000000000000000000 PUSH1 0x0 MSTORE PUSH1 0x11 PUSH1 0x4 MSTORE PUSH1 0x24 PUSH1 0x0 REVERT JUMPDEST PUSH1 0x0 PUSH2 0x2F3 DUP3 PUSH2 0x208 JUMP JUMPDEST SWAP2 POP PUSH2 0x2FE DUP4 PUSH2 0x208 JUMP JUMPDEST SWAP3 POP DUP3 DUP3 SUB SWAP1 POP DUP2 DUP2 GT ISZERO PUSH2 0x316 JUMPI PUSH2 0x315 PUSH2 0x2B9 JUMP JUMPDEST JUMPDEST SWAP3 SWAP2 POP POP JUMP JUMPDEST PUSH32 0x64656372656D656E740000000000000000000000000000000000000000000000 PUSH1 0x0 DUP3 ADD MSTORE POP JUMP JUMPDEST PUSH1 0x0 PUSH2 0x352 PUSH1 0x9 DUP4 PUSH2 0x23C JUMP JUMPDEST SWAP2 POP PUSH2 0x35D DUP3 PUSH2 0x31C JUMP JUMPDEST PUSH1 0x20 DUP3 ADD SWAP1 POP SWAP2 SWAP1 POP JUMP JUMPDEST PUSH1 0x0 PUSH1 0x40 DUP3 ADD SWAP1 POP DUP2 DUP2 SUB PUSH1 0x0 DUP4 ADD MSTORE PUSH2 0x381 DUP2 PUSH2 0x345 JUMP JUMPDEST SWAP1 POP PUSH2 0x390 PUSH1 0x20 DUP4 ADD DUP5 PUSH2 0x212 JUMP JUMPDEST SWAP3 SWAP2 POP POP JUMP JUMPDEST PUSH1 0x0 PUSH2 0x3A1 DUP3 PUSH2 0x208 JUMP JUMPDEST SWAP2 POP PUSH2 0x3AC DUP4 PUSH2 0x208 JUMP JUMPDEST SWAP3 POP DUP3 DUP3 ADD SWAP1 POP DUP1 DUP3 GT ISZERO PUSH2 0x3C4 JUMPI PUSH2 0x3C3 PUSH2 0x2B9 JUMP JUMPDEST JUMPDEST SWAP3 SWAP2 POP POP JUMP JUMPDEST PUSH32 0x696E6372656D656E740000000000000000000000000000000000000000000000 PUSH1 0x0 DUP3 ADD MSTORE POP JUMP JUMPDEST PUSH1 0x0 PUSH2 0x400 PUSH1 0x9 DUP4 PUSH2 0x23C JUMP JUMPDEST SWAP2 POP PUSH2 0x40B DUP3 PUSH2 0x3CA JUMP JUMPDEST PUSH1 0x20 DUP3 ADD SWAP1 POP SWAP2 SWAP1 POP JUMP JUMPDEST PUSH1 0x0 PUSH1 0x40 DUP3 ADD SWAP1 POP DUP2 DUP2 SUB PUSH1 0x0 DUP4 ADD MSTORE PUSH2 0x42F DUP2 PUSH2 0x3F3 JUMP JUMPDEST SWAP1 POP PUSH2 0x43E PUSH1 0x20 DUP4 ADD DUP5 PUSH2 0x212 JUMP JUMPDEST SWAP3 SWAP2 POP POP JUMP JUMPDEST PUSH32 0x436F756E74206D7573742062652067726561746572207468616E203000000000 PUSH1 0x0 DUP3 ADD MSTORE POP JUMP JUMPDEST PUSH1 0x0 PUSH2 0x47A PUSH1 0x1C DUP4 PUSH2 0x23C JUMP JUMPDEST SWAP2 POP PUSH2 0x485 DUP3 PUSH2 0x444 JUMP JUMPDEST PUSH1 0x20 DUP3 ADD SWAP1 POP SWAP2 SWAP1 POP JUMP JUMPDEST PUSH1 0x0 PUSH1 0x20 DUP3 ADD SWAP1 POP DUP2 DUP2 SUB PUSH1 0x0 DUP4 ADD MSTORE PUSH2 0x4A9 DUP2 PUSH2 0x46D JUMP JUMPDEST SWAP1 POP SWAP2 SWAP1 POP JUMP JUMPDEST PUSH32 0x7265736574000000000000000000000000000000000000000000000000000000 PUSH1 0x0 DUP3 ADD MSTORE POP JUMP JUMPDEST PUSH1 0x0 PUSH2 0x4E6 PUSH1 0x5 DUP4 PUSH2 0x23C JUMP JUMPDEST SWAP2 POP PUSH2 0x4F1 DUP3 PUSH2 0x4B0 JUMP JUMPDEST PUSH1 0x20 DUP3 ADD SWAP1 POP SWAP2 SWAP1 POP JUMP JUMPDEST PUSH1 0x0 PUSH1 0x40 DUP3 ADD SWAP1 POP DUP2 DUP2 SUB PUSH1 0x0 DUP4 ADD MSTORE PUSH2 0x515 DUP2 PUSH2 0x4D9 JUMP JUMPDEST SWAP1 POP PUSH2 0x524 PUSH1 0x20 DUP4 ADD DUP5 PUSH2 0x212 JUMP JUMPDEST SWAP3 SWAP2 POP POP JUMP INVALID LOG2 PUSH5 0x6970667358 0x22 SLT KECCAK256 ADD 0xD7 0x4C 0xAF 0x4E PUSH32 0xFD4A9974DDCADDA4CB9C3C609C57B7CEC4FAB233FD539B148A9F64736F6C6343 STOP ADDMOD SHR STOP CALLER "
        },
        "methodIdentifiers": {
          "decrement()": "2baeceb7",
          "getCount()": "a87d942c",
          "increment()": "d09de08a",
          "reset()": "d826f88f"
        }
      }
    }
  }
}